{
  "contractName": "iVote",
  "abi": [
    {
      "inputs": [],
      "stateMutability": "nonpayable",
      "type": "constructor"
    },
    {
      "anonymous": false,
      "inputs": [
        {
          "indexed": true,
          "internalType": "address",
          "name": "previousOwner",
          "type": "address"
        },
        {
          "indexed": true,
          "internalType": "address",
          "name": "newOwner",
          "type": "address"
        }
      ],
      "name": "OwnershipTransferred",
      "type": "event"
    },
    {
      "anonymous": false,
      "inputs": [
        {
          "indexed": false,
          "internalType": "uint256",
          "name": "electionId",
          "type": "uint256"
        }
      ],
      "name": "electionCancelled",
      "type": "event"
    },
    {
      "anonymous": false,
      "inputs": [
        {
          "indexed": false,
          "internalType": "uint256",
          "name": "id",
          "type": "uint256"
        },
        {
          "indexed": false,
          "internalType": "string[]",
          "name": "name",
          "type": "string[]"
        }
      ],
      "name": "electionCreated",
      "type": "event"
    },
    {
      "anonymous": false,
      "inputs": [
        {
          "indexed": false,
          "internalType": "uint256",
          "name": "id",
          "type": "uint256"
        },
        {
          "indexed": false,
          "internalType": "string",
          "name": "name",
          "type": "string"
        },
        {
          "indexed": false,
          "internalType": "address",
          "name": "voter",
          "type": "address"
        }
      ],
      "name": "voted",
      "type": "event"
    },
    {
      "inputs": [],
      "name": "_electionIdTracker",
      "outputs": [
        {
          "internalType": "uint256",
          "name": "_value",
          "type": "uint256"
        }
      ],
      "stateMutability": "view",
      "type": "function",
      "constant": true
    },
    {
      "inputs": [
        {
          "internalType": "uint256",
          "name": "",
          "type": "uint256"
        },
        {
          "internalType": "string",
          "name": "",
          "type": "string"
        }
      ],
      "name": "candidateVotes",
      "outputs": [
        {
          "internalType": "uint256",
          "name": "",
          "type": "uint256"
        }
      ],
      "stateMutability": "view",
      "type": "function",
      "constant": true
    },
    {
      "inputs": [
        {
          "internalType": "uint256",
          "name": "",
          "type": "uint256"
        },
        {
          "internalType": "address",
          "name": "",
          "type": "address"
        }
      ],
      "name": "hasVoted",
      "outputs": [
        {
          "internalType": "bool",
          "name": "",
          "type": "bool"
        }
      ],
      "stateMutability": "view",
      "type": "function",
      "constant": true
    },
    {
      "inputs": [
        {
          "internalType": "uint256",
          "name": "",
          "type": "uint256"
        }
      ],
      "name": "idToElection",
      "outputs": [
        {
          "internalType": "uint256",
          "name": "numberOfCandidates",
          "type": "uint256"
        },
        {
          "internalType": "uint256",
          "name": "duration",
          "type": "uint256"
        },
        {
          "internalType": "uint256",
          "name": "startTime",
          "type": "uint256"
        },
        {
          "internalType": "bool",
          "name": "isActive",
          "type": "bool"
        }
      ],
      "stateMutability": "view",
      "type": "function",
      "constant": true
    },
    {
      "inputs": [],
      "name": "owner",
      "outputs": [
        {
          "internalType": "address",
          "name": "",
          "type": "address"
        }
      ],
      "stateMutability": "view",
      "type": "function",
      "constant": true
    },
    {
      "inputs": [],
      "name": "renounceOwnership",
      "outputs": [],
      "stateMutability": "nonpayable",
      "type": "function"
    },
    {
      "inputs": [
        {
          "internalType": "address",
          "name": "newOwner",
          "type": "address"
        }
      ],
      "name": "transferOwnership",
      "outputs": [],
      "stateMutability": "nonpayable",
      "type": "function"
    },
    {
      "inputs": [
        {
          "internalType": "uint256",
          "name": "numberOfCandidates",
          "type": "uint256"
        },
        {
          "internalType": "string[]",
          "name": "namesOfCandidates",
          "type": "string[]"
        },
        {
          "internalType": "uint256",
          "name": "duration",
          "type": "uint256"
        }
      ],
      "name": "startElection",
      "outputs": [],
      "stateMutability": "nonpayable",
      "type": "function"
    },
    {
      "inputs": [
        {
          "internalType": "uint256",
          "name": "_electionId",
          "type": "uint256"
        }
      ],
      "name": "returnCandidatesForElection",
      "outputs": [
        {
          "internalType": "string[]",
          "name": "",
          "type": "string[]"
        }
      ],
      "stateMutability": "view",
      "type": "function",
      "constant": true
    },
    {
      "inputs": [
        {
          "internalType": "uint256",
          "name": "electionId",
          "type": "uint256"
        },
        {
          "internalType": "string",
          "name": "candidate",
          "type": "string"
        },
        {
          "internalType": "bool",
          "name": "panic",
          "type": "bool"
        }
      ],
      "name": "voteForCandidate",
      "outputs": [],
      "stateMutability": "nonpayable",
      "type": "function"
    },
    {
      "inputs": [
        {
          "internalType": "uint256",
          "name": "electionId",
          "type": "uint256"
        }
      ],
      "name": "cancleElection",
      "outputs": [],
      "stateMutability": "nonpayable",
      "type": "function"
    }
  ],
  "bytecode": "0x608060405234801561001057600080fd5b5061002d61002261003260201b60201c565b61003a60201b60201c565b6100fe565b600033905090565b60008060009054906101000a900473ffffffffffffffffffffffffffffffffffffffff169050816000806101000a81548173ffffffffffffffffffffffffffffffffffffffff021916908373ffffffffffffffffffffffffffffffffffffffff1602179055508173ffffffffffffffffffffffffffffffffffffffff168173ffffffffffffffffffffffffffffffffffffffff167f8be0079c531659141344cd1fd0a4f28419497f9722a3daafe3b4186f6b6457e060405160405180910390a35050565b611c248061010d6000396000f3fe608060405234801561001057600080fd5b50600436106100a95760003560e01c806356596a391161007157806356596a3914610176578063715018a6146101a95780638da5cb5b146101b3578063a6c7305c146101d1578063d60bbc62146101ef578063f2fde38b1461020b576100a9565b806305f37a99146100ae57806326185842146100de57806343859632146100fa5780634669b0d91461012a5780635406ddbd14610146575b600080fd5b6100c860048036038101906100c3919061118f565b610227565b6040516100d5919061162a565b60405180910390f35b6100f860048036038101906100f391906111e3565b610262565b005b610114600480360381019061010f91906110ec565b61068d565b604051610121919061150f565b60405180910390f35b610144600480360381019061013f91906110c3565b6106bc565b005b610160600480360381019061015b91906110c3565b61086d565b60405161016d91906114ed565b60405180910390f35b610190600480360381019061018b91906110c3565b61095c565b6040516101a094939291906116b3565b60405180910390f35b6101b1610999565b005b6101bb610a21565b6040516101c891906114d2565b60405180910390f35b6101d9610a4a565b6040516101e6919061162a565b60405180910390f35b61020960048036038101906102049190611128565b610a56565b005b6102256004803603810190610220919061109a565b610c07565b005b600360205281600052604060002081805160208101820180518482526020830160208501208183528095505050505050600091509150505481565b8282600060026000848152602001908152602001600020600101805480602002602001604051908101604052809291908181526020016000905b828210156103485783829060005260206000200180546102bb906118cb565b80601f01602080910402602001604051908101604052809291908181526020018280546102e7906118cb565b80156103345780601f1061030957610100808354040283529160200191610334565b820191906000526020600020905b81548152906001019060200180831161031757829003601f168201915b50505050508152602001906001019061029c565b505050509050600080600090505b82518110156106835783805190602001208382815181106103a0577f4e487b7100000000000000000000000000000000000000000000000000000000600052603260045260246000fd5b602002602001015180519060200120141561067057600191506103f8600260008a815260200190815260200160002060020154600260008b815260200190815260200160002060030154610cff90919063ffffffff16565b4210610439576040517f08c379a00000000000000000000000000000000000000000000000000000000081526004016104309061152a565b60405180910390fd5b60001515600460008a815260200190815260200160002060003373ffffffffffffffffffffffffffffffffffffffff1673ffffffffffffffffffffffffffffffffffffffff16815260200190815260200160002060009054906101000a900460ff161515146104dd576040517f08c379a00000000000000000000000000000000000000000000000000000000081526004016104d49061156a565b60405180910390fd5b60011515600260008a815260200190815260200160002060040160009054906101000a900460ff16151514610547576040517f08c379a000000000000000000000000000000000000000000000000000000000815260040161053e906115ea565b60405180910390fd5b600015158615151415610634576105976001600360008b81526020019081526020016000208960405161057a91906114bb565b908152602001604051809103902054610cff90919063ffffffff16565b600360008a8152602001908152602001600020886040516105b891906114bb565b9081526020016040518091039020819055506001600460008a815260200190815260200160002060003373ffffffffffffffffffffffffffffffffffffffff1673ffffffffffffffffffffffffffffffffffffffff16815260200190815260200160002060006101000a81548160ff0219169083151502179055505b7f206b31bab444765b80acc6f5a62c907160ec6f0ba3ccf6adad71ea5546a8377588883360405161066793929190611675565b60405180910390a15b808061067b9061192e565b915050610356565b5050505050505050565b60046020528160005260406000206020528060005260406000206000915091509054906101000a900460ff1681565b6106c4610d15565b73ffffffffffffffffffffffffffffffffffffffff166106e2610a21565b73ffffffffffffffffffffffffffffffffffffffff1614610738576040517f08c379a000000000000000000000000000000000000000000000000000000000815260040161072f906115aa565b60405180910390fd5b6107426001610d1d565b811115610784576040517f08c379a000000000000000000000000000000000000000000000000000000000815260040161077b9061160a565b60405180910390fd5b6107c360026000838152602001908152602001600020600201546002600084815260200190815260200160002060030154610cff90919063ffffffff16565b4210610804576040517f08c379a00000000000000000000000000000000000000000000000000000000081526004016107fb9061158a565b60405180910390fd5b60006002600083815260200190815260200160002060040160006101000a81548160ff0219169083151502179055507fb1bde38659db56782afe15abfe982b76e78bf85947143254abfb819b8ac68cf281604051610862919061162a565b60405180910390a150565b606060026000838152602001908152602001600020600101805480602002602001604051908101604052809291908181526020016000905b828210156109515783829060005260206000200180546108c4906118cb565b80601f01602080910402602001604051908101604052809291908181526020018280546108f0906118cb565b801561093d5780601f106109125761010080835404028352916020019161093d565b820191906000526020600020905b81548152906001019060200180831161092057829003601f168201915b5050505050815260200190600101906108a5565b505050509050919050565b60026020528060005260406000206000915090508060000154908060020154908060030154908060040160009054906101000a900460ff16905084565b6109a1610d15565b73ffffffffffffffffffffffffffffffffffffffff166109bf610a21565b73ffffffffffffffffffffffffffffffffffffffff1614610a15576040517f08c379a0000000000000000000000000000000000000000000000000000000008152600401610a0c906115aa565b60405180910390fd5b610a1f6000610d2b565b565b60008060009054906101000a900473ffffffffffffffffffffffffffffffffffffffff16905090565b60018060000154905081565b610a5e610d15565b73ffffffffffffffffffffffffffffffffffffffff16610a7c610a21565b73ffffffffffffffffffffffffffffffffffffffff1614610ad2576040517f08c379a0000000000000000000000000000000000000000000000000000000008152600401610ac9906115aa565b60405180910390fd5b610adc6001610def565b6000610ae86001610d1d565b905082518414610b2d576040517f08c379a0000000000000000000000000000000000000000000000000000000008152600401610b24906115ca565b60405180910390fd5b6040518060a001604052808581526020018481526020018381526020014281526020016001151581525060026000838152602001908152602001600020600082015181600001556020820151816001019080519060200190610b90929190610e05565b50604082015181600201556060820151816003015560808201518160040160006101000a81548160ff0219169083151502179055509050507ff8f5337420a0ab0c0ee498166a6f5a0668ec853c726f3805747c9528c3d535318184604051610bf9929190611645565b60405180910390a150505050565b610c0f610d15565b73ffffffffffffffffffffffffffffffffffffffff16610c2d610a21565b73ffffffffffffffffffffffffffffffffffffffff1614610c83576040517f08c379a0000000000000000000000000000000000000000000000000000000008152600401610c7a906115aa565b60405180910390fd5b600073ffffffffffffffffffffffffffffffffffffffff168173ffffffffffffffffffffffffffffffffffffffff161415610cf3576040517f08c379a0000000000000000000000000000000000000000000000000000000008152600401610cea9061154a565b60405180910390fd5b610cfc81610d2b565b50565b60008183610d0d91906117eb565b905092915050565b600033905090565b600081600001549050919050565b60008060009054906101000a900473ffffffffffffffffffffffffffffffffffffffff169050816000806101000a81548173ffffffffffffffffffffffffffffffffffffffff021916908373ffffffffffffffffffffffffffffffffffffffff1602179055508173ffffffffffffffffffffffffffffffffffffffff168173ffffffffffffffffffffffffffffffffffffffff167f8be0079c531659141344cd1fd0a4f28419497f9722a3daafe3b4186f6b6457e060405160405180910390a35050565b6001816000016000828254019250508190555050565b828054828255906000526020600020908101928215610e54579160200282015b82811115610e53578251829080519060200190610e43929190610e65565b5091602001919060010190610e25565b5b509050610e619190610eeb565b5090565b828054610e71906118cb565b90600052602060002090601f016020900481019282610e935760008555610eda565b82601f10610eac57805160ff1916838001178555610eda565b82800160010185558215610eda579182015b82811115610ed9578251825591602001919060010190610ebe565b5b509050610ee79190610f0f565b5090565b5b80821115610f0b5760008181610f029190610f2c565b50600101610eec565b5090565b5b80821115610f28576000816000905550600101610f10565b5090565b508054610f38906118cb565b6000825580601f10610f4a5750610f69565b601f016020900490600052602060002090810190610f689190610f0f565b5b50565b6000610f7f610f7a8461171d565b6116f8565b9050808382526020820190508260005b85811015610fbf5781358501610fa5888261105b565b845260208401935060208301925050600181019050610f8f565b5050509392505050565b6000610fdc610fd784611749565b6116f8565b905082815260208101848484011115610ff457600080fd5b610fff848285611889565b509392505050565b60008135905061101681611ba9565b92915050565b600082601f83011261102d57600080fd5b813561103d848260208601610f6c565b91505092915050565b60008135905061105581611bc0565b92915050565b600082601f83011261106c57600080fd5b813561107c848260208601610fc9565b91505092915050565b60008135905061109481611bd7565b92915050565b6000602082840312156110ac57600080fd5b60006110ba84828501611007565b91505092915050565b6000602082840312156110d557600080fd5b60006110e384828501611085565b91505092915050565b600080604083850312156110ff57600080fd5b600061110d85828601611085565b925050602061111e85828601611007565b9150509250929050565b60008060006060848603121561113d57600080fd5b600061114b86828701611085565b935050602084013567ffffffffffffffff81111561116857600080fd5b6111748682870161101c565b925050604061118586828701611085565b9150509250925092565b600080604083850312156111a257600080fd5b60006111b085828601611085565b925050602083013567ffffffffffffffff8111156111cd57600080fd5b6111d98582860161105b565b9150509250929050565b6000806000606084860312156111f857600080fd5b600061120686828701611085565b935050602084013567ffffffffffffffff81111561122357600080fd5b61122f8682870161105b565b925050604061124086828701611046565b9150509250925092565b600061125683836112f1565b905092915050565b61126781611841565b82525050565b60006112788261178a565b61128281856117ad565b9350836020820285016112948561177a565b8060005b858110156112d057848403895281516112b1858261124a565b94506112bc836117a0565b925060208a01995050600181019050611298565b50829750879550505050505092915050565b6112eb81611853565b82525050565b60006112fc82611795565b61130681856117be565b9350611316818560208601611898565b61131f81611a04565b840191505092915050565b600061133582611795565b61133f81856117cf565b935061134f818560208601611898565b61135881611a04565b840191505092915050565b600061136e82611795565b61137881856117e0565b9350611388818560208601611898565b80840191505092915050565b60006113a16012836117cf565b91506113ac82611a15565b602082019050919050565b60006113c46026836117cf565b91506113cf82611a3e565b604082019050919050565b60006113e76017836117cf565b91506113f282611a8d565b602082019050919050565b600061140a601a836117cf565b915061141582611ab6565b602082019050919050565b600061142d6020836117cf565b915061143882611adf565b602082019050919050565b60006114506037836117cf565b915061145b82611b08565b604082019050919050565b60006114736016836117cf565b915061147e82611b57565b602082019050919050565b60006114966018836117cf565b91506114a182611b80565b602082019050919050565b6114b58161187f565b82525050565b60006114c78284611363565b915081905092915050565b60006020820190506114e7600083018461125e565b92915050565b60006020820190508181036000830152611507818461126d565b905092915050565b600060208201905061152460008301846112e2565b92915050565b6000602082019050818103600083015261154381611394565b9050919050565b60006020820190508181036000830152611563816113b7565b9050919050565b60006020820190508181036000830152611583816113da565b9050919050565b600060208201905081810360008301526115a3816113fd565b9050919050565b600060208201905081810360008301526115c381611420565b9050919050565b600060208201905081810360008301526115e381611443565b9050919050565b6000602082019050818103600083015261160381611466565b9050919050565b6000602082019050818103600083015261162381611489565b9050919050565b600060208201905061163f60008301846114ac565b92915050565b600060408201905061165a60008301856114ac565b818103602083015261166c818461126d565b90509392505050565b600060608201905061168a60008301866114ac565b818103602083015261169c818561132a565b90506116ab604083018461125e565b949350505050565b60006080820190506116c860008301876114ac565b6116d560208301866114ac565b6116e260408301856114ac565b6116ef60608301846112e2565b95945050505050565b6000611702611713565b905061170e82826118fd565b919050565b6000604051905090565b600067ffffffffffffffff821115611738576117376119d5565b5b602082029050602081019050919050565b600067ffffffffffffffff821115611764576117636119d5565b5b61176d82611a04565b9050602081019050919050565b6000819050602082019050919050565b600081519050919050565b600081519050919050565b6000602082019050919050565b600082825260208201905092915050565b600082825260208201905092915050565b600082825260208201905092915050565b600081905092915050565b60006117f68261187f565b91506118018361187f565b9250827fffffffffffffffffffffffffffffffffffffffffffffffffffffffffffffffff0382111561183657611835611977565b5b828201905092915050565b600061184c8261185f565b9050919050565b60008115159050919050565b600073ffffffffffffffffffffffffffffffffffffffff82169050919050565b6000819050919050565b82818337600083830152505050565b60005b838110156118b657808201518184015260208101905061189b565b838111156118c5576000848401525b50505050565b600060028204905060018216806118e357607f821691505b602082108114156118f7576118f66119a6565b5b50919050565b61190682611a04565b810181811067ffffffffffffffff82111715611925576119246119d5565b5b80604052505050565b60006119398261187f565b91507fffffffffffffffffffffffffffffffffffffffffffffffffffffffffffffffff82141561196c5761196b611977565b5b600182019050919050565b7f4e487b7100000000000000000000000000000000000000000000000000000000600052601160045260246000fd5b7f4e487b7100000000000000000000000000000000000000000000000000000000600052602260045260246000fd5b7f4e487b7100000000000000000000000000000000000000000000000000000000600052604160045260246000fd5b6000601f19601f8301169050919050565b7f456c656374696f6e2068617320656e6465640000000000000000000000000000600082015250565b7f4f776e61626c653a206e6577206f776e657220697320746865207a65726f206160008201527f6464726573730000000000000000000000000000000000000000000000000000602082015250565b7f20757365722068617320616c726561647920766f746564000000000000000000600082015250565b7f456c656374696f6e2068617320616c726561647920656e646564000000000000600082015250565b7f4f776e61626c653a2063616c6c6572206973206e6f7420746865206f776e6572600082015250565b7f4e756d626572206f662063616e646964617465732073686f756c64206265206560008201527f7175616c20746f206e756d626572206f66206e616d6573000000000000000000602082015250565b7f456c656374696f6e206973206e6f742061637469766500000000000000000000600082015250565b7f656c656374696f6e496420646f65736e27742065786973740000000000000000600082015250565b611bb281611841565b8114611bbd57600080fd5b50565b611bc981611853565b8114611bd457600080fd5b50565b611be08161187f565b8114611beb57600080fd5b5056fea26469706673582212202456b172b13ca0165bcef62f8b8382ef246210e92b1f3d99501520157279b72c64736f6c63430008030033",
  "immutableReferences": {},
  "source": "/**\r\n *Submitted for verification at Etherscan.io on 2021-11-05\r\n*/\r\n\r\n// SPDX-License-Identifier: MIT \r\npragma solidity ^0.8.3;\r\n\r\nlibrary Counters {\r\n    struct Counter {\r\n        // This variable should never be directly accessed by users of the library: interactions must be restricted to\r\n        // the library's function. As of Solidity v0.5.2, this cannot be enforced, though there is a proposal to add\r\n        // this feature: see https://github.com/ethereum/solidity/issues/4637\r\n        uint256 _value; // default: 0\r\n    }\r\n\r\n    function current(Counter storage counter) internal view returns (uint256) {\r\n        return counter._value;\r\n    }\r\n\r\n    function increment(Counter storage counter) internal {\r\n        unchecked {\r\n            counter._value += 1;\r\n        }\r\n    }\r\n\r\n    function decrement(Counter storage counter) internal {\r\n        uint256 value = counter._value;\r\n        require(value > 0, \"Counter: decrement overflow\");\r\n        unchecked {\r\n            counter._value = value - 1;\r\n        }\r\n    }\r\n\r\n    function reset(Counter storage counter) internal {\r\n        counter._value = 0;\r\n    }\r\n}\r\nabstract contract Context {\r\n    function _msgSender() internal view virtual returns (address) {\r\n        return msg.sender;\r\n    }\r\n\r\n    function _msgData() internal view virtual returns (bytes calldata) {\r\n        return msg.data;\r\n    }\r\n}\r\n\r\nlibrary SafeMath {\r\n    /**\r\n     * @dev Returns the addition of two unsigned integers, with an overflow flag.\r\n     *\r\n     * _Available since v3.4._\r\n     */\r\n    function tryAdd(uint256 a, uint256 b) internal pure returns (bool, uint256) {\r\n        unchecked {\r\n            uint256 c = a + b;\r\n            if (c < a) return (false, 0);\r\n            return (true, c);\r\n        }\r\n    }\r\n\r\n    /**\r\n     * @dev Returns the substraction of two unsigned integers, with an overflow flag.\r\n     *\r\n     * _Available since v3.4._\r\n     */\r\n    function trySub(uint256 a, uint256 b) internal pure returns (bool, uint256) {\r\n        unchecked {\r\n            if (b > a) return (false, 0);\r\n            return (true, a - b);\r\n        }\r\n    }\r\n\r\n    /**\r\n     * @dev Returns the multiplication of two unsigned integers, with an overflow flag.\r\n     *\r\n     * _Available since v3.4._\r\n     */\r\n    function tryMul(uint256 a, uint256 b) internal pure returns (bool, uint256) {\r\n        unchecked {\r\n            // Gas optimization: this is cheaper than requiring 'a' not being zero, but the\r\n            // benefit is lost if 'b' is also tested.\r\n            // See: https://github.com/OpenZeppelin/openzeppelin-contracts/pull/522\r\n            if (a == 0) return (true, 0);\r\n            uint256 c = a * b;\r\n            if (c / a != b) return (false, 0);\r\n            return (true, c);\r\n        }\r\n    }\r\n\r\n    /**\r\n     * @dev Returns the division of two unsigned integers, with a division by zero flag.\r\n     *\r\n     * _Available since v3.4._\r\n     */\r\n    function tryDiv(uint256 a, uint256 b) internal pure returns (bool, uint256) {\r\n        unchecked {\r\n            if (b == 0) return (false, 0);\r\n            return (true, a / b);\r\n        }\r\n    }\r\n\r\n    /**\r\n     * @dev Returns the remainder of dividing two unsigned integers, with a division by zero flag.\r\n     *\r\n     * _Available since v3.4._\r\n     */\r\n    function tryMod(uint256 a, uint256 b) internal pure returns (bool, uint256) {\r\n        unchecked {\r\n            if (b == 0) return (false, 0);\r\n            return (true, a % b);\r\n        }\r\n    }\r\n\r\n    /**\r\n     * @dev Returns the addition of two unsigned integers, reverting on\r\n     * overflow.\r\n     *\r\n     * Counterpart to Solidity's `+` operator.\r\n     *\r\n     * Requirements:\r\n     *\r\n     * - Addition cannot overflow.\r\n     */\r\n    function add(uint256 a, uint256 b) internal pure returns (uint256) {\r\n        return a + b;\r\n    }\r\n\r\n    /**\r\n     * @dev Returns the subtraction of two unsigned integers, reverting on\r\n     * overflow (when the result is negative).\r\n     *\r\n     * Counterpart to Solidity's `-` operator.\r\n     *\r\n     * Requirements:\r\n     *\r\n     * - Subtraction cannot overflow.\r\n     */\r\n    function sub(uint256 a, uint256 b) internal pure returns (uint256) {\r\n        return a - b;\r\n    }\r\n\r\n    /**\r\n     * @dev Returns the multiplication of two unsigned integers, reverting on\r\n     * overflow.\r\n     *\r\n     * Counterpart to Solidity's `*` operator.\r\n     *\r\n     * Requirements:\r\n     *\r\n     * - Multiplication cannot overflow.\r\n     */\r\n    function mul(uint256 a, uint256 b) internal pure returns (uint256) {\r\n        return a * b;\r\n    }\r\n\r\n    /**\r\n     * @dev Returns the integer division of two unsigned integers, reverting on\r\n     * division by zero. The result is rounded towards zero.\r\n     *\r\n     * Counterpart to Solidity's `/` operator.\r\n     *\r\n     * Requirements:\r\n     *\r\n     * - The divisor cannot be zero.\r\n     */\r\n    function div(uint256 a, uint256 b) internal pure returns (uint256) {\r\n        return a / b;\r\n    }\r\n\r\n    /**\r\n     * @dev Returns the remainder of dividing two unsigned integers. (unsigned integer modulo),\r\n     * reverting when dividing by zero.\r\n     *\r\n     * Counterpart to Solidity's `%` operator. This function uses a `revert`\r\n     * opcode (which leaves remaining gas untouched) while Solidity uses an\r\n     * invalid opcode to revert (consuming all remaining gas).\r\n     *\r\n     * Requirements:\r\n     *\r\n     * - The divisor cannot be zero.\r\n     */\r\n    function mod(uint256 a, uint256 b) internal pure returns (uint256) {\r\n        return a % b;\r\n    }\r\n\r\n    /**\r\n     * @dev Returns the subtraction of two unsigned integers, reverting with custom message on\r\n     * overflow (when the result is negative).\r\n     *\r\n     * CAUTION: This function is deprecated because it requires allocating memory for the error\r\n     * message unnecessarily. For custom revert reasons use {trySub}.\r\n     *\r\n     * Counterpart to Solidity's `-` operator.\r\n     *\r\n     * Requirements:\r\n     *\r\n     * - Subtraction cannot overflow.\r\n     */\r\n    function sub(\r\n        uint256 a,\r\n        uint256 b,\r\n        string memory errorMessage\r\n    ) internal pure returns (uint256) {\r\n        unchecked {\r\n            require(b <= a, errorMessage);\r\n            return a - b;\r\n        }\r\n    }\r\n\r\n    /**\r\n     * @dev Returns the integer division of two unsigned integers, reverting with custom message on\r\n     * division by zero. The result is rounded towards zero.\r\n     *\r\n     * Counterpart to Solidity's `/` operator. Note: this function uses a\r\n     * `revert` opcode (which leaves remaining gas untouched) while Solidity\r\n     * uses an invalid opcode to revert (consuming all remaining gas).\r\n     *\r\n     * Requirements:\r\n     *\r\n     * - The divisor cannot be zero.\r\n     */\r\n    function div(\r\n        uint256 a,\r\n        uint256 b,\r\n        string memory errorMessage\r\n    ) internal pure returns (uint256) {\r\n        unchecked {\r\n            require(b > 0, errorMessage);\r\n            return a / b;\r\n        }\r\n    }\r\n\r\n    /**\r\n     * @dev Returns the remainder of dividing two unsigned integers. (unsigned integer modulo),\r\n     * reverting with custom message when dividing by zero.\r\n     *\r\n     * CAUTION: This function is deprecated because it requires allocating memory for the error\r\n     * message unnecessarily. For custom revert reasons use {tryMod}.\r\n     *\r\n     * Counterpart to Solidity's `%` operator. This function uses a `revert`\r\n     * opcode (which leaves remaining gas untouched) while Solidity uses an\r\n     * invalid opcode to revert (consuming all remaining gas).\r\n     *\r\n     * Requirements:\r\n     *\r\n     * - The divisor cannot be zero.\r\n     */\r\n    function mod(\r\n        uint256 a,\r\n        uint256 b,\r\n        string memory errorMessage\r\n    ) internal pure returns (uint256) {\r\n        unchecked {\r\n            require(b > 0, errorMessage);\r\n            return a % b;\r\n        }\r\n    }\r\n}\r\n\r\nabstract contract Ownable is Context {\r\n    address private _owner;\r\n\r\n    event OwnershipTransferred(address indexed previousOwner, address indexed newOwner);\r\n\r\n    /**\r\n     * @dev Initializes the contract setting the deployer as the initial owner.\r\n     */\r\n    constructor() {\r\n        _setOwner(_msgSender());\r\n    }\r\n\r\n    /**\r\n     * @dev Returns the address of the current owner.\r\n     */\r\n    function owner() public view virtual returns (address) {\r\n        return _owner;\r\n    }\r\n\r\n    /**\r\n     * @dev Throws if called by any account other than the owner.\r\n     */\r\n    modifier onlyOwner() {\r\n        require(owner() == _msgSender(), \"Ownable: caller is not the owner\");\r\n        _;\r\n    }\r\n\r\n    /**\r\n     * @dev Leaves the contract without owner. It will not be possible to call\r\n     * `onlyOwner` functions anymore. Can only be called by the current owner.\r\n     *\r\n     * NOTE: Renouncing ownership will leave the contract without an owner,\r\n     * thereby removing any functionality that is only available to the owner.\r\n     */\r\n    function renounceOwnership() public virtual onlyOwner {\r\n        _setOwner(address(0));\r\n    }\r\n\r\n    /**\r\n     * @dev Transfers ownership of the contract to a new account (`newOwner`).\r\n     * Can only be called by the current owner.\r\n     */\r\n    function transferOwnership(address newOwner) public virtual onlyOwner {\r\n        require(newOwner != address(0), \"Ownable: new owner is the zero address\");\r\n        _setOwner(newOwner);\r\n    }\r\n\r\n    function _setOwner(address newOwner) private {\r\n        address oldOwner = _owner;\r\n        _owner = newOwner;\r\n        emit OwnershipTransferred(oldOwner, newOwner);\r\n    }\r\n}\r\n\r\ncontract iVote is Ownable{\r\n    using Counters for Counters.Counter;\r\n\r\n    using SafeMath for uint;\r\n    \r\n  Counters.Counter public  _electionIdTracker; \r\n constructor(){}\r\n \r\n struct election{\r\n    uint256 numberOfCandidates; \r\n    string[] namesOfCandidates;\r\n    uint256 duration;\r\n    uint256 startTime;\r\n    bool isActive;\r\n }\r\n \r\n mapping(uint256 => election) public idToElection;\r\n mapping(uint256 => mapping( string => uint256)) public candidateVotes;\r\n mapping(uint256 => mapping( address => bool)) public hasVoted;\r\n \r\n event electionCreated(uint256 id, string[] name);\r\n event voted(uint256 id, string name, address voter);\r\n event electionCancelled(uint256 electionId);\r\n function startElection(uint256 numberOfCandidates, string[] memory namesOfCandidates, uint256 duration) external onlyOwner {  \r\n      _electionIdTracker.increment();\r\n      uint256 electionId = _electionIdTracker.current();\r\n      require(numberOfCandidates == (namesOfCandidates.length),\"Number of candidates should be equal to number of names\");\r\n      idToElection[electionId] = election({\r\n          numberOfCandidates: numberOfCandidates,\r\n          namesOfCandidates: namesOfCandidates,\r\n          duration: duration,\r\n          startTime: block.timestamp,\r\n          isActive:true\r\n      });\r\n   emit electionCreated(electionId, namesOfCandidates);   \r\n}\r\n\r\nfunction returnCandidatesForElection(uint256 _electionId) public view returns(string[] memory){\r\n    return idToElection[_electionId].namesOfCandidates;\r\n}\r\nfunction voteForCandidate(uint256 electionId, string memory candidate, bool panic) external isValidCandidate( electionId, candidate){\r\n    require(block.timestamp < idToElection[electionId].startTime.add(idToElection[electionId].duration),\"Election has ended\" );\r\n    require(hasVoted[electionId][msg.sender] == false,\" user has already voted\");\r\n    require(idToElection[electionId].isActive == true,\"Election is not active\");\r\n    if(panic == false){\r\n        candidateVotes[electionId][candidate]= candidateVotes[electionId][candidate].add(1);\r\n        hasVoted[electionId][msg.sender] = true;\r\n    }\r\n    emit voted(electionId, candidate, msg.sender);\r\n}\r\n\r\nfunction cancleElection(uint256 electionId) external onlyOwner{\r\n    require(electionId<= _electionIdTracker.current(),\"electionId doesn't exist\");\r\n    require(block.timestamp < idToElection[electionId].startTime.add(idToElection[electionId].duration),\"Election has already ended\" );\r\n    idToElection[electionId].isActive = false;\r\n    emit electionCancelled(electionId);\r\n}\r\n\r\nmodifier isValidCandidate(uint256 electionId, string memory candidate){\r\n    string[] memory candidates = idToElection[electionId].namesOfCandidates;\r\n    bool valid;\r\n    for(uint256 i = 0; i<candidates.length;i++){\r\n        if((keccak256(bytes(candidates[i]))==keccak256(bytes(candidate)))){\r\n            valid = true;\r\n            _;\r\n                }\r\n    }\r\n}\r\n \r\n}",
  "sourcePath": "C:\\Users\\sj931\\OneDrive\\Desktop\\iVote-temp\\ethereum\\contracts\\iVote.sol",
  "compiler": {
    "name": "solc",
    "version": "0.8.3+commit.8d00100c.Emscripten.clang"
  },
  "schemaVersion": "3.4.3",
  "updatedAt": "2021-11-16T22:30:25.952Z",
  "networkType": "ethereum",
  "devdoc": {
    "kind": "dev",
    "methods": {
      "owner()": {
        "details": "Returns the address of the current owner."
      },
      "renounceOwnership()": {
        "details": "Leaves the contract without owner. It will not be possible to call `onlyOwner` functions anymore. Can only be called by the current owner. NOTE: Renouncing ownership will leave the contract without an owner, thereby removing any functionality that is only available to the owner."
      },
      "transferOwnership(address)": {
        "details": "Transfers ownership of the contract to a new account (`newOwner`). Can only be called by the current owner."
      }
    },
    "version": 1
  },
  "userdoc": {
    "kind": "user",
    "methods": {},
    "version": 1
  }
}